:020000040000FA
:0400000007EF00F016
:0A0008005F82E9ED09F029EF0AF02C
:1008000000636F6E746167656D203D202564007024
:0D0810006572696F646F203D202564000053
:10081E0024C03CF025C03DF026C03EF027C03FF07E
:10082E0028C040F029C041F02AC042F02BC043F04E
:10083E0043BE24EF04F027EF04F0010E28EF04F07E
:10084E00000E3A6E3B6A3A503B10D8B431EF04F0CA
:10085E0033EF04F043EF04F0431E421E411E401ED0
:10086E003F1E3E1E3D1E3C6C000E3D223E223F2290
:10087E004022412242224322000165BF49EF04F08B
:10088E004BEF04F04CEF04F0669365BF59EF04F0A4
:10089E00655106E16405D8B057EF04F059EF04F046
:1008AE005FEF04F0000E376E010E366E63EF04F04C
:1008BE0064C036F065C037F062C038F063C039F0FE
:1008CE003A503B10D8A46EEF04F070EF04F077EFBF
:1008DE0004F066A575EF04F077EF04F07AEF04F0FC
:1008EE003806D8A03906000E456E1F0E446E000E57
:1008FE00886FFEEF04F04406D8A04506690E442426
:10090E00D96E000E4520DA6E3CC001F03DC002F0FB
:10091E003EC003F03FC004F040C005F041C006F0F9
:10092E0042C007F043C008F00A0E096E000E0A6EB0
:10093E00000E0B6E000E0C6E000E0D6E000E0E6E87
:10094E00000E0F6E000E106E1EEC07F001C02CF0A4
:10095E0002C02DF003C02EF004C02FF005C030F001
:10096E0006C031F007C032F008C033F02CC013F0CF
:10097E002EC014F0AEEC09F01350300FDF6E3606B9
:10098E00D8A037063806D8A039063CC001F03DC0C5
:10099E0002F03EC003F03FC004F040C005F041C07D
:1009AE0006F042C007F043C008F00A0E096E000EB2
:1009BE000A6E000E0B6E000E0C6E000E0D6E000E0B
:1009CE000E6E000E0F6E000E106E5AEC06F001C089
:1009DE003CF002C03DF003C03EF004C03FF005C045
:1009EE0040F006C041F007C042F008C043F045BEDB
:1009FE0009EF05F0455008E14404D8A009EF05F0D1
:100A0E000BEF05F03CEF05F03C503D103E103F1053
:100A1E004010411042104310D8A418EF05F01AEF01
:100A2E0005F082EF04F037BE27EF05F0375006E1F0
:100A3E003604D8B025EF05F027EF05F082EF04F06D
:100A4E0039BE32EF05F0395008E13804D8A032EF44
:100A5E0005F034EF05F03CEF05F0000166B33AEF18
:100A6E0005F03CEF05F082EF04F03A503B10D8A4AD
:100A7E0043EF05F045EF05F04DEF05F0000166A5DB
:100A8E004BEF05F04DEF05F06BEF05F04406D8A0E7
:100A9E0045063A503B10D8A457EF05F059EF05F034
:100AAE005FEF05F0000E356E2B0E346E63EF05F022
:100ABE00000E356E2D0E346E690E4424D96E000E66
:100ACE004520DA6E34C0DFFF22C017F023C018F0C5
:100ADE00690E4424196E000E45201A6E38C01BF0A4
:100AEE0039C01CF0D0EC07F017C022F018C023F06C
:100AFE00120048C0D9FF49C0DAFFDECFF6FFDDCFC6
:100B0E00F7FF0800F550250AD8A490EF05F092EFF4
:100B1E0005F03EEF06F048C0D9FF49C0DAFFDE2AE5
:100B2E00000EDD22000E0001636F000E626F62C0C8
:100B3E0066F063C067F06469656948C0D9FF49C053
:100B4E00DAFFDECFF6FFDDCFF7FF0800F550640ABF
:100B5E00D8B4B4EF05F0B6EF05F0C8EF05F048C015
:100B6E00D9FF49C0DAFFDECFF6FFDDCFF7FF080071
:100B7E00F550690AD8A4C6EF05F0C8EF05F008EFE6
:100B8E0006F048C0D9FF49C0DAFFDE2A000EDD228A
:100B9E004AC0D9FF4BC0DAFFDFCF4CF0020EDE2683
:100BAE00DFCF4DF0000EDD224CC0D9FF4DC0DAFF75
:100BBE00DECF4EF0DDCF4FF0000E4FBEFF0E506E6B
:100BCE00516E526E536E546E556E46C022F047C033
:100BDE0023F04EC024F04FC025F050C026F051C077
:100BEE0027F052C028F053C029F054C02AF055C047
:100BFE002BF00FEC04F022C046F023C047F059EF63
:100C0E0006F048C0D9FF49C0DAFFDECFF6FFDDCFD0
:100C1E00F7FF0800F550250AD8A418EF06F01AEFD2
:100C2E0006F031EF06F048C0D9FF49C0DAFFDE2AE0
:100C3E00000EDD22000E086E250E076E46C009F06E
:100C4E0047C00AF033EC08F0000E476E010E466EF8
:100C5E0059EF06F048C0D9FF49C0DAFFDE2A000E70
:100C6E00DD22000E476E000E466E59EF06F048C0AC
:100C7E00D9FF49C0DAFFDECFF6FFDDCFF7FF080060
:100C8E00F550076E086A46C009F047C00AF033EC0B
:100C9E0008F048C0D9FF49C0DAFFDE2A000EDD2277
:100CAE002BEF06F01200000E126E10BE63EF06F070
:100CBE0061EF06F075EF06F0101E0F1E0E1E0D1ED4
:100CCE000C1E0B1E0A1E096C000E0A220B220C2291
:100CDE000D220E220F221022010E126E08BE7CEF84
:100CEE0006F07AEF06F08EEF06F0081E071E061EBF
:100CFE00051E041E031E021E016C000E022203229C
:100D0E0004220522062207220822010E121A20EEC4
:100D1E0013F0070EDE6AE806FDE209500A100B100A
:100D2E000C100D100E100F101010D8B4A1EF06F00D
:100D3E00A3EF06F0F5EF06F0010E116EB1EF06F01F
:100D4E00D89009360A360B360C360D360E360F365F
:100D5E001036112A10AEB6EF06F0B8EF06F0A7EF78
:100D6E0006F0D89013361436153616361736183652
:100D7E0019361A360950015C0A5002580B500358A6
:100D8E000C5004580D5005580E5006580F50075869
:100D9E0010500858D8A0D6EF06F0D8EF06F0E9EFBD
:100DAE0006F00950015E0A50025A0B50035A0C50BD
:100DBE00045A0D50055A0E50065A0F50075A10502D
:100DCE00085A1380D89010320F320E320D320C3278
:100DDE000B320A320932112EB8EF06F01250D8B487
:100DEE00FBEF06F0FDEF06F00DEF07F01A1E191ED1
:100DFE00181E171E161E151E141E136C000E14221E
:100E0E00152216221722182219221A2213C001F0B7
:100E1E0014C002F015C003F016C004F017C005F0A0
:100E2E0018C006F019C007F01AC008F01200000E24
:100E3E00126E08BE27EF07F025EF07F039EF07F027
:100E4E00081E071E061E051E041E031E021E016C32
:100E5E00000E022203220422052206220722082265
:100E6E00010E126E10BE40EF07F03EEF07F050EF8E
:100E7E0007F0101E0F1E0E1E0D1E0C1E0B1E0A1E40
:100E8E00096C000E0A220B220C220D220E220F22BA
:100E9E00102209500A100B100C100D100E100F100E
:100EAE001010D8B45DEF07F05FEF07F0A7EF07F073
:100EBE00010E116E6DEF07F0D89009360A360B361B
:100ECE000C360D360E360F361036112A10AE72EF66
:100EDE0007F074EF07F063EF07F00950015C0A505A
:100EEE0002580B5003580C5004580D5005580E5014
:100EFE0006580F50075810500858D8A089EF07F021
:100F0E008BEF07F09BEF07F00950015E0A50025A73
:100F1E000B50035A0C50045A0D50055A0E50065AD7
:100F2E000F50075A1050085AD89010320F320E3206
:100F3E000D320C320B320A320932112E74EF07F0D9
:100F4E001250D8B4ADEF07F0AFEF07F0BFEF07F0D8
:100F5E00081E071E061E051E041E031E021E016C21
:100F6E00000E022203220422052206220722082254
:100F7E0001C001F002C002F003C003F004C004F08F
:100F8E0005C005F006C006F007C007F008C008F05F
:100F9E001200000166A1D6EF07F0D8EF07F0E2EFDE
:100FAE0007F019C010F01AC011F017C012F018C0D7
:100FBE0013F06BEC09F01CBEE7EF07F0E9EF07F05A
:100FCE00EFEF07F01BC020F01CC021F0F3EF07F08D
:100FDE00000E216E000E206E000E1F6E000E1E6E95
:100FEE0005EF08F0000E086E200E076E17C009F010
:100FFE0018C00AF033EC08F01E4A1F2A20501E5C5F
:10100E001F50800A1D6E2150800A1D58D8A012EF65
:10101E0008F014EF08F0F9EF07F0000166B11AEFCF
:10102E0008F01CEF08F026EF08F019C010F01AC0F7
:10103E0011F017C012F018C013F06BEC09F019C0C4
:10104E0001F01AC002F0CEEC09F020500124176E08
:10105E0021500220186E120009500A10D8B43AEF2F
:10106E0008F03CEF08F045EF08F009500A10D8A43C
:10107E0043EF08F045EF08F04AEF08F007503FEC59
:10108E000AF07DEF08F020EE04F00950D9260A5040
:10109E00DA22DE50DE10D8B457EF08F059EF08F020
:1010AE0074EF08F020EE04F00950D9260A50DA2227
:1010BE0010EE02F00950E1260A50E222DE50E65C04
:1010CE00E650800A0F6EDE50800A0F58D8B072EFCD
:1010DE0008F074EF08F07DEF08F020EE02F00950F2
:1010EE00D9260A50DA22DE2A000EDD221200026E06
:1010FE00838202C001F0010E0116013A83500118DD
:10110E00EF0B0118836E02C001F0D8900132010E70
:10111E000116013A014683500118DF0B0118836E48
:10112E0002C001F0D8900132D8900132010E0116A2
:10113E00013A0146014683500118BF0B0118836E18
:10114E0002C001F0D8900132D8900132D89001320D
:10115E00010E011601320132835001187F0B011866
:10116E00836E100EE82EFED700D08392100EE82E5E
:10117E00FED700D0120083928398839A839C839E1D
:10118E00410E056EEE0EE82EFED7052EFCD700D0D2
:10119E00030E7EEC08F0060E056E300EE82EFED71E
:1011AE00052EFCD700D0030E7EEC08F0210EE82EA3
:1011BE00FED700F0030E7EEC08F0020E7EEC08F077
:1011CE00010E036E000E17EC0AF0030E056E980E5C
:1011DE00E82EFED7052EFCD7280E036E000E17EC58
:1011EE000AF00C0E036E000E17EC0AF0060E036EDC
:1011FE00000E17EC0AF012009380F18C000E956E23
:10120E00C2EC08F0CA80CA82CA84F28EF2880D0E31
:10121E005E6EFC0EE82EFED75E2EFCD7010E056E1E
:10122E00010E8DEC09F0010E0001896F080E8A6F18
:10123E0068C08BF08C6B03EC0AF0010E056E020E8B
:10124E008DEC09F00F0E0001896F080E8A6F685140
:10125E00100DF3CF8BF0F4CF8CF003EC0AF00EEF01
:10126E0009F007EF00F058C05CF059C05DF0000EB9
:10127E000001616F000E606F58EF09F056C046F026
:10128E0057C047F05C0E486E000E496E5AC04AF0C9
:10129E005BC04BF080EC05F04650000160274750D4
:1012AE0061235CC0F6FF5DC0F7FF0800F550000932
:1012BE00D8A464EF09F066EF09F045EF09F060C0BD
:1012CE0056F061C057F01200000E166E000E156E2D
:1012DE007CEF09F014C007F0086A12C009F013C0C1
:1012EE000AF033EC08F0154A162A15501024D96E60
:1012FE0016501120DA6EDF50146E1450D8A48AEFF7
:10130E0009F08CEF09F071EF09F01200066E000E75
:10131E00076E0604D8A496EF09F098EF09F09AEF3D
:10132E0009F0800E076E020E0618D8A4A1EF09F080
:10133E00A3EF09F0A5EF09F0C00E076E07500524C4
:10134E00076E07C003F0000E17EC0AF0120014BE71
:10135E00BBEF09F0145006E11304D8B0B9EF09F051
:10136E00BBEF09F0C9EF09F013C015F014C016F069
:10137E00151E161E154A162A15C013F016C014F0A7
:10138E00CDEF09F013C013F014C014F0120001C019
:10139E0003F002C004F0D6EF09F0014A022A01C0A0
:1013AE00D9FF02C0DAFFDF50D8A4E0EF09F0E2EF78
:1013BE0009F0D4EF09F00350015C016E045002589D
:1013CE00026E12000600F2A2EFEF09F0F1EF09F043
:1013DE0001EF0AF0F292F1ACF7EF09F0F9EF09F034
:1013EE00FEEF09F0000ECC6EF19C01EF0AF0CCCFAF
:1013FE0068F0F18C5F9211008B0E00018F6F000E62
:10140E00906F000E566E000E576E89C058F08AC04F
:10141E0059F08F0E5A6E000E5B6E3AEC09F0120008
:10142E00046E04B002D0839001D0838000D000D02F
:10143E0000F003380F0B7EEC08F003500F0B7EEC20
:10144E0008F0120000EE60F0290EEE6AE806FDE1EB
:10145E005F905F92000EF86E080EF76E000103EFBC
:10146E0009F0056E05C003F0010E17EC0AF012002C
:0A147E00066E065038EC0AF012006A
:020000040020DA
:08000000FFFFFFFFFFFFFFFF00
:020000040030CA
:0E00000000001F1EFF8181FF0FC00FE00F40A8
:00000001FF
